{
  "_format": "hh-sol-artifact-1",
  "contractName": "Poll",
  "sourceName": "contracts/vote.sol",
  "abi": [
    {
      "inputs": [
        {
          "internalType": "contract IERC20",
          "name": "token",
          "type": "address"
        }
      ],
      "stateMutability": "nonpayable",
      "type": "constructor"
    },
    {
      "inputs": [],
      "name": "getNumVoters",
      "outputs": [
        {
          "internalType": "uint256",
          "name": "",
          "type": "uint256"
        }
      ],
      "stateMutability": "view",
      "type": "function"
    },
    {
      "inputs": [],
      "name": "getYesPercentage",
      "outputs": [
        {
          "internalType": "uint256",
          "name": "",
          "type": "uint256"
        }
      ],
      "stateMutability": "view",
      "type": "function"
    },
    {
      "inputs": [
        {
          "internalType": "address",
          "name": "voter",
          "type": "address"
        }
      ],
      "name": "hasTokens",
      "outputs": [
        {
          "internalType": "bool",
          "name": "",
          "type": "bool"
        }
      ],
      "stateMutability": "view",
      "type": "function"
    },
    {
      "inputs": [
        {
          "internalType": "address",
          "name": "voter",
          "type": "address"
        }
      ],
      "name": "hasVoted",
      "outputs": [
        {
          "internalType": "bool",
          "name": "",
          "type": "bool"
        }
      ],
      "stateMutability": "view",
      "type": "function"
    },
    {
      "inputs": [],
      "name": "owner",
      "outputs": [
        {
          "internalType": "address",
          "name": "",
          "type": "address"
        }
      ],
      "stateMutability": "view",
      "type": "function"
    },
    {
      "inputs": [],
      "name": "voteNo",
      "outputs": [],
      "stateMutability": "nonpayable",
      "type": "function"
    },
    {
      "inputs": [],
      "name": "voteYes",
      "outputs": [],
      "stateMutability": "nonpayable",
      "type": "function"
    }
  ],
  "bytecode": "0x608060405234801561001057600080fd5b50604051610aae380380610aae833981810160405281019061003291906100ce565b33600160006101000a81548173ffffffffffffffffffffffffffffffffffffffff021916908373ffffffffffffffffffffffffffffffffffffffff160217905550806000806101000a81548173ffffffffffffffffffffffffffffffffffffffff021916908373ffffffffffffffffffffffffffffffffffffffff16021790555050610152565b6000815190506100c88161013b565b92915050565b6000602082840312156100e057600080fd5b60006100ee848285016100b9565b91505092915050565b60006101028261011b565b9050919050565b6000610114826100f7565b9050919050565b600073ffffffffffffffffffffffffffffffffffffffff82169050919050565b61014481610109565b811461014f57600080fd5b50565b61094d806101616000396000f3fe608060405234801561001057600080fd5b506004361061007d5760003560e01c806341c12a701161005b57806341c12a70146101005780638da5cb5b1461010a57806390cf581c146101285780639b51dda3146101325761007d565b806309eef43e1461008257806325bd79eb146100b25780633cefc1e0146100d0575b600080fd5b61009c600480360381019061009791906105b6565b610150565b6040516100a99190610696565b60405180910390f35b6100ba610221565b6040516100c791906106f1565b60405180910390f35b6100ea60048036038101906100e591906105b6565b61022e565b6040516100f79190610696565b60405180910390f35b6101086102ec565b005b6101126103e2565b60405161011f919061067b565b60405180910390f35b610130610408565b005b61013a610561565b60405161014791906106f1565b60405180910390f35b6000806000905060005b60038054905081101561021757600381815481106101a1577f4e487b7100000000000000000000000000000000000000000000000000000000600052603260045260246000fd5b9060005260206000200160009054906101000a900473ffffffffffffffffffffffffffffffffffffffff1673ffffffffffffffffffffffffffffffffffffffff168473ffffffffffffffffffffffffffffffffffffffff16141561020457600191505b808061020f906107f0565b91505061015a565b5080915050919050565b6000600380549050905090565b600068056bc75e2d6310000060008054906101000a900473ffffffffffffffffffffffffffffffffffffffff1673ffffffffffffffffffffffffffffffffffffffff166370a08231846040518263ffffffff1660e01b8152600401610293919061067b565b60206040518083038186803b1580156102ab57600080fd5b505afa1580156102bf573d6000803e3d6000fd5b505050506040513d601f19601f820116820180604052508101906102e391906105df565b10159050919050565b6102f533610150565b15610335576040517f08c379a000000000000000000000000000000000000000000000000000000000815260040161032c906106d1565b60405180910390fd5b61033e3361022e565b61037d576040517f08c379a0000000000000000000000000000000000000000000000000000000008152600401610374906106b1565b60405180910390fd5b6003339080600181540180825580915050600190039060005260206000200160009091909190916101000a81548173ffffffffffffffffffffffffffffffffffffffff021916908373ffffffffffffffffffffffffffffffffffffffff160217905550565b600160009054906101000a900473ffffffffffffffffffffffffffffffffffffffff1681565b61041133610150565b15610451576040517f08c379a0000000000000000000000000000000000000000000000000000000008152600401610448906106d1565b60405180910390fd5b61045a3361022e565b610499576040517f08c379a0000000000000000000000000000000000000000000000000000000008152600401610490906106b1565b60405180910390fd5b6002339080600181540180825580915050600190039060005260206000200160009091909190916101000a81548173ffffffffffffffffffffffffffffffffffffffff021916908373ffffffffffffffffffffffffffffffffffffffff1602179055506003339080600181540180825580915050600190039060005260206000200160009091909190916101000a81548173ffffffffffffffffffffffffffffffffffffffff021916908373ffffffffffffffffffffffffffffffffffffffff160217905550565b600061056b610221565b606460028054905061057d919061074e565b610587919061071d565b905090565b60008135905061059b816108e9565b92915050565b6000815190506105b081610900565b92915050565b6000602082840312156105c857600080fd5b60006105d68482850161058c565b91505092915050565b6000602082840312156105f157600080fd5b60006105ff848285016105a1565b91505092915050565b610611816107a8565b82525050565b610620816107ba565b82525050565b6000610633601d8361070c565b915061063e82610897565b602082019050919050565b600061065660118361070c565b9150610661826108c0565b602082019050919050565b610675816107e6565b82525050565b60006020820190506106906000830184610608565b92915050565b60006020820190506106ab6000830184610617565b92915050565b600060208201905081810360008301526106ca81610626565b9050919050565b600060208201905081810360008301526106ea81610649565b9050919050565b6000602082019050610706600083018461066c565b92915050565b600082825260208201905092915050565b6000610728826107e6565b9150610733836107e6565b92508261074357610742610868565b5b828204905092915050565b6000610759826107e6565b9150610764836107e6565b9250817fffffffffffffffffffffffffffffffffffffffffffffffffffffffffffffffff048311821515161561079d5761079c610839565b5b828202905092915050565b60006107b3826107c6565b9050919050565b60008115159050919050565b600073ffffffffffffffffffffffffffffffffffffffff82169050919050565b6000819050919050565b60006107fb826107e6565b91507fffffffffffffffffffffffffffffffffffffffffffffffffffffffffffffffff82141561082e5761082d610839565b5b600182019050919050565b7f4e487b7100000000000000000000000000000000000000000000000000000000600052601160045260246000fd5b7f4e487b7100000000000000000000000000000000000000000000000000000000600052601260045260246000fd5b7f4e6565642031303020465745423320746f6b656e7320746f20766f7465000000600082015250565b7f596f7520616c726561647920766f746564000000000000000000000000000000600082015250565b6108f2816107a8565b81146108fd57600080fd5b50565b610909816107e6565b811461091457600080fd5b5056fea2646970667358221220f09615156b2001fda897b144d236fb43fefe64f80560885c2209cf652f7566e464736f6c63430008020033",
  "linkReferences": {},
  "deployedLinkReferences": {}
}