{
  "_format": "hh-sol-artifact-1",
  "contractName": "Poll",
  "sourceName": "contracts/vote.sol",
  "abi": [
    {
      "inputs": [
        {
          "internalType": "contract IERC20",
          "name": "token",
          "type": "address"
        }
      ],
      "stateMutability": "nonpayable",
      "type": "constructor"
    },
    {
      "inputs": [],
      "name": "getNumVoters",
      "outputs": [
        {
          "internalType": "uint256",
          "name": "",
          "type": "uint256"
        }
      ],
      "stateMutability": "view",
      "type": "function"
    },
    {
      "inputs": [],
      "name": "getYesPercentage",
      "outputs": [
        {
          "internalType": "uint256",
          "name": "",
          "type": "uint256"
        }
      ],
      "stateMutability": "view",
      "type": "function"
    },
    {
      "inputs": [],
      "name": "haveIVoted",
      "outputs": [
        {
          "internalType": "bool",
          "name": "",
          "type": "bool"
        }
      ],
      "stateMutability": "view",
      "type": "function"
    },
    {
      "inputs": [],
      "name": "owner",
      "outputs": [
        {
          "internalType": "address",
          "name": "",
          "type": "address"
        }
      ],
      "stateMutability": "view",
      "type": "function"
    },
    {
      "inputs": [],
      "name": "voteNo",
      "outputs": [],
      "stateMutability": "nonpayable",
      "type": "function"
    },
    {
      "inputs": [],
      "name": "voteYes",
      "outputs": [],
      "stateMutability": "nonpayable",
      "type": "function"
    }
  ],
  "bytecode": "0x608060405234801561001057600080fd5b5060405161099e38038061099e833981810160405281019061003291906100ce565b33600160006101000a81548173ffffffffffffffffffffffffffffffffffffffff021916908373ffffffffffffffffffffffffffffffffffffffff160217905550806000806101000a81548173ffffffffffffffffffffffffffffffffffffffff021916908373ffffffffffffffffffffffffffffffffffffffff16021790555050610152565b6000815190506100c88161013b565b92915050565b6000602082840312156100e057600080fd5b60006100ee848285016100b9565b91505092915050565b60006101028261011b565b9050919050565b6000610114826100f7565b9050919050565b600073ffffffffffffffffffffffffffffffffffffffff82169050919050565b61014481610109565b811461014f57600080fd5b50565b61083d806101616000396000f3fe608060405234801561001057600080fd5b50600436106100625760003560e01c806325bd79eb146100675780633b6e71e81461008557806341c12a70146100a35780638da5cb5b146100ad57806390cf581c146100cb5780639b51dda3146100d5575b600080fd5b61006f6100f3565b60405161007c91906105f8565b60405180910390f35b61008d6100fd565b60405161009a919061059d565b60405180910390f35b6100ab610151565b005b6100b5610254565b6040516100c29190610582565b60405180910390f35b6100d361027a565b005b6100dd610395565b6040516100ea91906105f8565b60405180910390f35b6000600354905090565b6000600460003373ffffffffffffffffffffffffffffffffffffffff1673ffffffffffffffffffffffffffffffffffffffff16815260200190815260200160002060009054906101000a900460ff16905090565b61015a336103bd565b1561019a576040517f08c379a0000000000000000000000000000000000000000000000000000000008152600401610191906105d8565b60405180910390fd5b6101a333610413565b6101e2576040517f08c379a00000000000000000000000000000000000000000000000000000000081526004016101d9906105b8565b60405180910390fd5b600360008154809291906101f5906106f7565b91905055506001600460003373ffffffffffffffffffffffffffffffffffffffff1673ffffffffffffffffffffffffffffffffffffffff16815260200190815260200160002060006101000a81548160ff021916908315150217905550565b600160009054906101000a900473ffffffffffffffffffffffffffffffffffffffff1681565b610283336103bd565b156102c3576040517f08c379a00000000000000000000000000000000000000000000000000000000081526004016102ba906105d8565b60405180910390fd5b6102cc33610413565b61030b576040517f08c379a0000000000000000000000000000000000000000000000000000000008152600401610302906105b8565b60405180910390fd5b6002600081548092919061031e906106f7565b919050555060036000815480929190610336906106f7565b91905055506001600460003373ffffffffffffffffffffffffffffffffffffffff1673ffffffffffffffffffffffffffffffffffffffff16815260200190815260200160002060006101000a81548160ff021916908315150217905550565b600061039f6100f3565b60646002546103ae9190610655565b6103b89190610624565b905090565b6000600460008373ffffffffffffffffffffffffffffffffffffffff1673ffffffffffffffffffffffffffffffffffffffff16815260200190815260200160002060009054906101000a900460ff169050919050565b600068056bc75e2d6310000060008054906101000a900473ffffffffffffffffffffffffffffffffffffffff1673ffffffffffffffffffffffffffffffffffffffff166370a08231846040518263ffffffff1660e01b81526004016104789190610582565b60206040518083038186803b15801561049057600080fd5b505afa1580156104a4573d6000803e3d6000fd5b505050506040513d601f19601f820116820180604052508101906104c891906104e6565b10159050919050565b6000815190506104e0816107f0565b92915050565b6000602082840312156104f857600080fd5b6000610506848285016104d1565b91505092915050565b610518816106af565b82525050565b610527816106c1565b82525050565b600061053a601d83610613565b91506105458261079e565b602082019050919050565b600061055d601183610613565b9150610568826107c7565b602082019050919050565b61057c816106ed565b82525050565b6000602082019050610597600083018461050f565b92915050565b60006020820190506105b2600083018461051e565b92915050565b600060208201905081810360008301526105d18161052d565b9050919050565b600060208201905081810360008301526105f181610550565b9050919050565b600060208201905061060d6000830184610573565b92915050565b600082825260208201905092915050565b600061062f826106ed565b915061063a836106ed565b92508261064a5761064961076f565b5b828204905092915050565b6000610660826106ed565b915061066b836106ed565b9250817fffffffffffffffffffffffffffffffffffffffffffffffffffffffffffffffff04831182151516156106a4576106a3610740565b5b828202905092915050565b60006106ba826106cd565b9050919050565b60008115159050919050565b600073ffffffffffffffffffffffffffffffffffffffff82169050919050565b6000819050919050565b6000610702826106ed565b91507fffffffffffffffffffffffffffffffffffffffffffffffffffffffffffffffff82141561073557610734610740565b5b600182019050919050565b7f4e487b7100000000000000000000000000000000000000000000000000000000600052601160045260246000fd5b7f4e487b7100000000000000000000000000000000000000000000000000000000600052601260045260246000fd5b7f4e6565642031303020465745423320746f6b656e7320746f20766f7465000000600082015250565b7f596f7520616c726561647920766f746564000000000000000000000000000000600082015250565b6107f9816106ed565b811461080457600080fd5b5056fea26469706673582212209aa9d4b93c5e5b345e63d1d25bd96a5f34e0c7f055bde505584b08330ec4378564736f6c63430008020033",
  "linkReferences": {},
  "deployedLinkReferences": {}
}